Archive member included because of file (symbol)

c:/soft/prog/winavr/bin/../lib/gcc/avr/4.3.3/avr5\libgcc.a(_exit.o)
                              c:/soft/prog/winavr/bin/../lib/gcc/avr/4.3.3/../../../../avr/lib/avr5/crtm164p.o (exit)
c:/soft/prog/winavr/bin/../lib/gcc/avr/4.3.3/avr5\libgcc.a(_clear_bss.o)
                              ./revA/main.o (__do_clear_bss)

Memory Configuration

Name             Origin             Length             Attributes
text             0x00000000         0x00020000         xr
data             0x00800060         0x0000ffa0         rw !x
eeprom           0x00810000         0x00010000         rw !x
fuse             0x00820000         0x00000400         rw !x
lock             0x00830000         0x00000400         rw !x
signature        0x00840000         0x00000400         rw !x
*default*        0x00000000         0xffffffff

Linker script and memory map

Address of section .data set to 0x800100
LOAD c:/soft/prog/winavr/bin/../lib/gcc/avr/4.3.3/../../../../avr/lib/avr5/crtm164p.o
LOAD ./revA/inc/init_gpio.o
LOAD ./revA/inc/init_timer.o
LOAD ./revA/inc/system.o
LOAD ./revA/main.o
LOAD c:/soft/prog/winavr/bin/../lib/gcc/avr/4.3.3/avr5\libgcc.a
LOAD c:/soft/prog/winavr/bin/../lib/gcc/avr/4.3.3/../../../../avr/lib/avr5\libc.a
LOAD c:/soft/prog/winavr/bin/../lib/gcc/avr/4.3.3/avr5\libgcc.a

.hash
 *(.hash)

.dynsym
 *(.dynsym)

.dynstr
 *(.dynstr)

.gnu.version
 *(.gnu.version)

.gnu.version_d
 *(.gnu.version_d)

.gnu.version_r
 *(.gnu.version_r)

.rel.init
 *(.rel.init)

.rela.init
 *(.rela.init)

.rel.text
 *(.rel.text)
 *(.rel.text.*)
 *(.rel.gnu.linkonce.t*)

.rela.text
 *(.rela.text)
 *(.rela.text.*)
 *(.rela.gnu.linkonce.t*)

.rel.fini
 *(.rel.fini)

.rela.fini
 *(.rela.fini)

.rel.rodata
 *(.rel.rodata)
 *(.rel.rodata.*)
 *(.rel.gnu.linkonce.r*)

.rela.rodata
 *(.rela.rodata)
 *(.rela.rodata.*)
 *(.rela.gnu.linkonce.r*)

.rel.data
 *(.rel.data)
 *(.rel.data.*)
 *(.rel.gnu.linkonce.d*)

.rela.data
 *(.rela.data)
 *(.rela.data.*)
 *(.rela.gnu.linkonce.d*)

.rel.ctors
 *(.rel.ctors)

.rela.ctors
 *(.rela.ctors)

.rel.dtors
 *(.rel.dtors)

.rela.dtors
 *(.rela.dtors)

.rel.got
 *(.rel.got)

.rela.got
 *(.rela.got)

.rel.bss
 *(.rel.bss)

.rela.bss
 *(.rela.bss)

.rel.plt
 *(.rel.plt)

.rela.plt
 *(.rela.plt)

.text           0x00000000      0x380
 *(.vectors)
 .vectors       0x00000000       0x7c c:/soft/prog/winavr/bin/../lib/gcc/avr/4.3.3/../../../../avr/lib/avr5/crtm164p.o
                0x00000000                __vectors
                0x00000000                __vector_default
 *(.vectors)
 *(.progmem.gcc*)
 *(.progmem*)
                0x0000007c                . = ALIGN (0x2)
                0x0000007c                __trampolines_start = .
 *(.trampolines)
 .trampolines   0x0000007c        0x0 linker stubs
 *(.trampolines*)
                0x0000007c                __trampolines_end = .
 *(.jumptables)
 *(.jumptables*)
 *(.lowtext)
 *(.lowtext*)
                0x0000007c                __ctors_start = .
 *(.ctors)
                0x0000007c                __ctors_end = .
                0x0000007c                __dtors_start = .
 *(.dtors)
                0x0000007c                __dtors_end = .
 SORT(*)(.ctors)
 SORT(*)(.dtors)
 *(.init0)
 .init0         0x0000007c        0x0 c:/soft/prog/winavr/bin/../lib/gcc/avr/4.3.3/../../../../avr/lib/avr5/crtm164p.o
                0x0000007c                __init
 *(.init0)
 *(.init1)
 *(.init1)
 *(.init2)
 .init2         0x0000007c        0xc c:/soft/prog/winavr/bin/../lib/gcc/avr/4.3.3/../../../../avr/lib/avr5/crtm164p.o
 *(.init2)
 *(.init3)
 *(.init3)
 *(.init4)
 .init4         0x00000088       0x10 c:/soft/prog/winavr/bin/../lib/gcc/avr/4.3.3/avr5\libgcc.a(_clear_bss.o)
                0x00000088                __do_clear_bss
 *(.init4)
 *(.init5)
 *(.init5)
 *(.init6)
 *(.init6)
 *(.init7)
 *(.init7)
 *(.init8)
 *(.init8)
 *(.init9)
 .init9         0x00000098        0x8 c:/soft/prog/winavr/bin/../lib/gcc/avr/4.3.3/../../../../avr/lib/avr5/crtm164p.o
 *(.init9)
 *(.text)
 .text          0x000000a0        0x4 c:/soft/prog/winavr/bin/../lib/gcc/avr/4.3.3/../../../../avr/lib/avr5/crtm164p.o
                0x000000a0                __vector_22
                0x000000a0                __vector_28
                0x000000a0                __vector_1
                0x000000a0                __vector_24
                0x000000a0                __vector_12
                0x000000a0                __bad_interrupt
                0x000000a0                __vector_6
                0x000000a0                __vector_3
                0x000000a0                __vector_23
                0x000000a0                __vector_30
                0x000000a0                __vector_25
                0x000000a0                __vector_11
                0x000000a0                __vector_13
                0x000000a0                __vector_17
                0x000000a0                __vector_19
                0x000000a0                __vector_7
                0x000000a0                __vector_27
                0x000000a0                __vector_5
                0x000000a0                __vector_4
                0x000000a0                __vector_9
                0x000000a0                __vector_2
                0x000000a0                __vector_21
                0x000000a0                __vector_29
                0x000000a0                __vector_8
                0x000000a0                __vector_26
                0x000000a0                __vector_14
                0x000000a0                __vector_10
                0x000000a0                __vector_16
                0x000000a0                __vector_18
                0x000000a0                __vector_20
 .text          0x000000a4        0x0 ./revA/inc/init_gpio.o
 .text          0x000000a4        0x0 ./revA/inc/init_timer.o
 .text          0x000000a4        0x0 ./revA/inc/system.o
 .text          0x000000a4        0x0 ./revA/main.o
 .text          0x000000a4        0x0 c:/soft/prog/winavr/bin/../lib/gcc/avr/4.3.3/avr5\libgcc.a(_exit.o)
 .text          0x000000a4        0x0 c:/soft/prog/winavr/bin/../lib/gcc/avr/4.3.3/avr5\libgcc.a(_clear_bss.o)
                0x000000a4                . = ALIGN (0x2)
 *(.text.*)
 .text.GPIOInit
                0x000000a4       0x6a ./revA/inc/init_gpio.o
                0x000000a4                GPIOInit
 .text.GPIOWrite
                0x0000010e       0x6a ./revA/inc/init_gpio.o
                0x0000010e                GPIOWrite
 .text.GPIORead
                0x00000178       0x28 ./revA/inc/init_gpio.o
                0x00000178                GPIORead
 .text.Timer0CounterInit
                0x000001a0       0x80 ./revA/inc/init_timer.o
                0x000001a0                Timer0CounterInit
 .text.Timer1CounterInit
                0x00000220       0x96 ./revA/inc/init_timer.o
                0x00000220                Timer1CounterInit
 .text.TimerAttachInt
                0x000002b6       0x2e ./revA/inc/init_timer.o
                0x000002b6                TimerAttachInt
 .text.TimerGetCount
                0x000002e4        0xc ./revA/inc/init_timer.o
                0x000002e4                TimerGetCount
 .text.WDT_Prescaler_Change
                0x000002f0        0x2 ./revA/inc/system.o
                0x000002f0                WDT_Prescaler_Change
 .text.__vector_15
                0x000002f2       0x66 ./revA/main.o
                0x000002f2                __vector_15
 .text.__mcu__init
                0x00000358       0x12 ./revA/main.o
                0x00000358                __mcu__init
 .text.main     0x0000036a       0x12 ./revA/main.o
                0x0000036a                main
 .text.libgcc   0x0000037c        0x0 c:/soft/prog/winavr/bin/../lib/gcc/avr/4.3.3/avr5\libgcc.a(_exit.o)
 .text.libgcc   0x0000037c        0x0 c:/soft/prog/winavr/bin/../lib/gcc/avr/4.3.3/avr5\libgcc.a(_clear_bss.o)
                0x0000037c                . = ALIGN (0x2)
 *(.fini9)
 .fini9         0x0000037c        0x0 c:/soft/prog/winavr/bin/../lib/gcc/avr/4.3.3/avr5\libgcc.a(_exit.o)
                0x0000037c                exit
                0x0000037c                _exit
 *(.fini9)
 *(.fini8)
 *(.fini8)
 *(.fini7)
 *(.fini7)
 *(.fini6)
 *(.fini6)
 *(.fini5)
 *(.fini5)
 *(.fini4)
 *(.fini4)
 *(.fini3)
 *(.fini3)
 *(.fini2)
 *(.fini2)
 *(.fini1)
 *(.fini1)
 *(.fini0)
 .fini0         0x0000037c        0x4 c:/soft/prog/winavr/bin/../lib/gcc/avr/4.3.3/avr5\libgcc.a(_exit.o)
 *(.fini0)
                0x00000380                _etext = .

.data           0x00800100        0x0 load address 0x00000380
                0x00800100                PROVIDE (__data_start, .)
 *(.data)
 .data          0x00800100        0x0 c:/soft/prog/winavr/bin/../lib/gcc/avr/4.3.3/../../../../avr/lib/avr5/crtm164p.o
 .data          0x00800100        0x0 ./revA/inc/init_gpio.o
 .data          0x00800100        0x0 ./revA/inc/init_timer.o
 .data          0x00800100        0x0 ./revA/inc/system.o
 .data          0x00800100        0x0 ./revA/main.o
 .data          0x00800100        0x0 c:/soft/prog/winavr/bin/../lib/gcc/avr/4.3.3/avr5\libgcc.a(_exit.o)
 .data          0x00800100        0x0 c:/soft/prog/winavr/bin/../lib/gcc/avr/4.3.3/avr5\libgcc.a(_clear_bss.o)
 *(.data*)
 *(.rodata)
 *(.rodata*)
 *(.gnu.linkonce.d*)
                0x00800100                . = ALIGN (0x2)
                0x00800100                _edata = .
                0x00800100                PROVIDE (__data_end, .)

.bss            0x00800100        0x3
                0x00800100                PROVIDE (__bss_start, .)
 *(.bss)
 .bss           0x00800100        0x0 c:/soft/prog/winavr/bin/../lib/gcc/avr/4.3.3/../../../../avr/lib/avr5/crtm164p.o
 .bss           0x00800100        0x0 ./revA/inc/init_gpio.o
 .bss           0x00800100        0x0 ./revA/inc/init_timer.o
 .bss           0x00800100        0x0 ./revA/inc/system.o
 .bss           0x00800100        0x0 ./revA/main.o
 .bss           0x00800100        0x0 c:/soft/prog/winavr/bin/../lib/gcc/avr/4.3.3/avr5\libgcc.a(_exit.o)
 .bss           0x00800100        0x0 c:/soft/prog/winavr/bin/../lib/gcc/avr/4.3.3/avr5\libgcc.a(_clear_bss.o)
 *(.bss*)
 .bss.direction.1335
                0x00800100        0x1 ./revA/main.o
 .bss.pwm.1334  0x00800101        0x2 ./revA/main.o
 *(COMMON)
                0x00800103                PROVIDE (__bss_end, .)
                0x00000380                __data_load_start = LOADADDR (.data)
                0x00000380                __data_load_end = (__data_load_start + SIZEOF (.data))

.noinit         0x00800103        0x0
                0x00800103                PROVIDE (__noinit_start, .)
 *(.noinit*)
                0x00800103                PROVIDE (__noinit_end, .)
                0x00800103                _end = .
                0x00800103                PROVIDE (__heap_start, .)

.eeprom         0x00810000        0x0
 *(.eeprom*)
                0x00810000                __eeprom_end = .

.fuse
 *(.fuse)
 *(.lfuse)
 *(.hfuse)
 *(.efuse)

.lock
 *(.lock*)

.signature
 *(.signature*)

.stab
 *(.stab)

.stabstr
 *(.stabstr)

.stab.excl
 *(.stab.excl)

.stab.exclstr
 *(.stab.exclstr)

.stab.index
 *(.stab.index)

.stab.indexstr
 *(.stab.indexstr)

.comment
 *(.comment)

.debug
 *(.debug)

.line
 *(.line)

.debug_srcinfo
 *(.debug_srcinfo)

.debug_sfnames
 *(.debug_sfnames)

.debug_aranges
 *(.debug_aranges)

.debug_pubnames
 *(.debug_pubnames)

.debug_info
 *(.debug_info)
 *(.gnu.linkonce.wi.*)

.debug_abbrev
 *(.debug_abbrev)

.debug_line
 *(.debug_line)

.debug_frame
 *(.debug_frame)

.debug_str
 *(.debug_str)

.debug_loc
 *(.debug_loc)

.debug_macinfo
 *(.debug_macinfo)
OUTPUT(rev0.elf elf32-avr)
LOAD linker stubs
